{
  "_format": "hh-sol-artifact-1",
  "contractName": "Convertor",
  "sourceName": "contracts/Convertor.sol",
  "abi": [
    {
      "inputs": [],
      "stateMutability": "nonpayable",
      "type": "constructor"
    },
    {
      "inputs": [],
      "name": "getLatestPrices",
      "outputs": [
        {
          "internalType": "int256",
          "name": "",
          "type": "int256"
        },
        {
          "internalType": "int256",
          "name": "",
          "type": "int256"
        },
        {
          "internalType": "int256",
          "name": "",
          "type": "int256"
        },
        {
          "internalType": "int256",
          "name": "",
          "type": "int256"
        }
      ],
      "stateMutability": "view",
      "type": "function"
    }
  ],
  "bytecode": "0x608060405234801561001057600080fd5b50731b44f3514812d835eb1bdb0acb33d3fa3351ee436000806101000a81548173ffffffffffffffffffffffffffffffffffffffff021916908373ffffffffffffffffffffffffffffffffffffffff16021790555073694aa1769357215de4fac081bf1f309adc325306600160006101000a81548173ffffffffffffffffffffffffffffffffffffffff021916908373ffffffffffffffffffffffffffffffffffffffff16021790555073c59e3633baac79493d908e63626716e204a45edf600260006101000a81548173ffffffffffffffffffffffffffffffffffffffff021916908373ffffffffffffffffffffffffffffffffffffffff160217905550735fb1616f78da7afc9ff79e0371741a747d2a7f22600360006101000a81548173ffffffffffffffffffffffffffffffffffffffff021916908373ffffffffffffffffffffffffffffffffffffffff16021790555061036f806101736000396000f3fe608060405234801561001057600080fd5b506004361061002b5760003560e01c8063ff61ba5c14610030575b600080fd5b610038610051565b6040516100489493929190610280565b60405180910390f35b600080600080600061008260008054906101000a900473ffffffffffffffffffffffffffffffffffffffff16610127565b905060006100b1600160009054906101000a900473ffffffffffffffffffffffffffffffffffffffff16610127565b905060006100e0600260009054906101000a900473ffffffffffffffffffffffffffffffffffffffff16610127565b9050600061010f600360009054906101000a900473ffffffffffffffffffffffffffffffffffffffff16610127565b90508383838397509750975097505050505090919293565b6000808273ffffffffffffffffffffffffffffffffffffffff1663feaf968c6040518163ffffffff1660e01b815260040160a06040518083038186803b15801561017057600080fd5b505afa158015610184573d6000803e3d6000fd5b505050506040513d601f19601f820116820180604052508101906101a891906101f6565b50505091505080915050919050565b6000815190506101c6816102f4565b92915050565b6000815190506101db8161030b565b92915050565b6000815190506101f081610322565b92915050565b600080600080600060a08688031215610212576102116102ef565b5b6000610220888289016101e1565b9550506020610231888289016101b7565b9450506040610242888289016101cc565b9350506060610253888289016101cc565b9250506080610264888289016101e1565b9150509295509295909350565b61027a816102c5565b82525050565b60006080820190506102956000830187610271565b6102a26020830186610271565b6102af6040830185610271565b6102bc6060830184610271565b95945050505050565b6000819050919050565b6000819050919050565b600069ffffffffffffffffffff82169050919050565b600080fd5b6102fd816102c5565b811461030857600080fd5b50565b610314816102cf565b811461031f57600080fd5b50565b61032b816102d9565b811461033657600080fd5b5056fea2646970667358221220ddf02b74d840d59ea2ca555b3daf30ae29cda77e1e32954eedaa1ab8da27b8bc64736f6c63430008070033",
  "linkReferences": {},
  "deployedLinkReferences": {}
}